:100000000C9435000C945D000C945D000C945D0024
:100010000C945D000C945D000C945D000C945D00EC
:100020000C945D000C945D000C945D000C945D00DC
:100030000C945D000C945D000C945D000C945D00CC
:100040000C945D000C945D000C947E010C9458019E
:100050000C945D000C945D000C945D000C945D00AC
:100060000C945D000C945D00B00111241FBECFEF15
:10007000D8E0DEBFCDBF11E0A0E0B1E0ECEDF3E0F1
:1000800002C005900D92A231B107D9F721E0A2E19B
:10009000B1E001C01D92AF3AB207E1F710E0C5E34D
:1000A000D0E004C02197FE010E94E601C433D107CD
:1000B000C9F70E94DD010C94EC010C940000AF9292
:1000C000BF92CF92DF92EF92FF920F931F93CF9345
:1000D000DF936C017B018B01040F151FEB015E01A7
:1000E000AE18BF08C017D10759F06991D601ED913C
:1000F000FC910190F081E02DC6010995892B79F7DB
:10010000C501DF91CF911F910F91FF90EF90DF908C
:10011000CF90BF90AF900895FC01538D448D252F53
:1001200030E0842F90E0821B930B541710F0CF9691
:10013000089501970895FC01918D828D981761F0C3
:10014000A28DAE0FBF2FB11D5D968C91928D9F5FDA
:100150009F73928F90E008958FEF9FEF0895FC01B9
:10016000918D828D981731F0828DE80FF11D858D6C
:1001700090E008958FEF9FEF0895FC01918D228DFF
:10018000892F90E0805C9F4F821B91098F73992784
:100190000895FC01A48DA80FB92FB11DA35ABF4F1C
:1001A0002C91848D90E001968F739927848FA68976
:1001B000B7892C93A089B1898C91837080648C93CA
:1001C000938D848D981306C00288F389E02D808179
:1001D0008F7D80830895EF92FF920F931F93CF93AB
:1001E000DF93EC0181E0888F9B8D8C8D98131AC072
:1001F000E889F989808185FF15C09FB7F894EE8959
:10020000FF896083E889F9898081837080648083B5
:100210009FBF81E090E0DF91CF911F910F91FF9000
:10022000EF900895F62E0B8D10E00F5F1F4F0F73A8
:100230001127E02E8C8D8E110CC00FB607FCFACF63
:10024000E889F989808185FFF5CFCE010E94C90038
:10025000F1CFEB8DEC0FFD2FF11DE35AFF4FF08234
:100260009FB7F8940B8FEA89FB8980818062CFCF9A
:10027000CF93DF93EC01888D8823B9F0AA89BB89DD
:10028000E889F9898C9185FD03C0808186FD0DC0C8
:100290000FB607FCF7CF8C9185FFF2CF808185FFE9
:1002A000EDCFCE010E94C900E9CFDF91CF91089533
:1002B0001F920F920FB60F9211242F933F934F93DB
:1002C0005F936F937F938F939F93AF93BF93EF93BE
:1002D000FF9382E191E00E94C900FF91EF91BF91ED
:1002E000AF919F918F917F916F915F914F913F91CE
:1002F0002F910F900FBE0F901F9018951F920F9285
:100300000FB60F9211242F938F939F93EF93FF9328
:10031000E0912201F09123018081E0912801F09188
:10032000290182FD1BC0908180912B018F5F8F730B
:1003300020912C01821741F0E0912B01F0E0EE5E5C
:10034000FE4F958F80932B01FF91EF919F918F919D
:100350002F910F900FBE0F901F9018958081F4CFB2
:10036000E2E1F1E01382128288EE93E0A0E0B0E0D7
:1003700084839583A683B78384E091E0918380830F
:1003800085EC90E09587848784EC90E0978786875A
:1003900080EC90E0918B808B81EC90E0938B828B52
:1003A00082EC90E0958B848B86EC90E0978B868B2B
:1003B000118E128E138E148E0895209A52985A9A86
:1003C0004A9B02C02898FCCF289AFACFEE0FFF1F55
:0C03D0000590F491E02D0994F894FFCF03
:1003DC0000000000EB005F008C003801BD009B00AA
:0203EC00AF0060
:00000001FF
